{
  "_format": "hh-sol-artifact-1",
  "contractName": "Persons",
  "sourceName": "contracts/Persons.sol",
  "abi": [
    {
      "inputs": [],
      "stateMutability": "nonpayable",
      "type": "constructor"
    },
    {
      "inputs": [
        {
          "internalType": "string",
          "name": "name",
          "type": "string"
        },
        {
          "internalType": "uint256",
          "name": "age",
          "type": "uint256"
        }
      ],
      "name": "createPerson",
      "outputs": [],
      "stateMutability": "nonpayable",
      "type": "function"
    },
    {
      "inputs": [
        {
          "internalType": "uint256",
          "name": "index",
          "type": "uint256"
        }
      ],
      "name": "getAUser",
      "outputs": [
        {
          "internalType": "string",
          "name": "",
          "type": "string"
        },
        {
          "internalType": "uint256",
          "name": "",
          "type": "uint256"
        }
      ],
      "stateMutability": "view",
      "type": "function"
    },
    {
      "inputs": [
        {
          "internalType": "uint8",
          "name": "age",
          "type": "uint8"
        },
        {
          "internalType": "uint256",
          "name": "index",
          "type": "uint256"
        }
      ],
      "name": "updateAge",
      "outputs": [],
      "stateMutability": "nonpayable",
      "type": "function"
    },
    {
      "inputs": [
        {
          "internalType": "uint256",
          "name": "index",
          "type": "uint256"
        },
        {
          "internalType": "string",
          "name": "name",
          "type": "string"
        }
      ],
      "name": "updateName",
      "outputs": [],
      "stateMutability": "nonpayable",
      "type": "function"
    }
  ],
  "bytecode": "0x608060405234801561001057600080fd5b50336000806101000a81548173ffffffffffffffffffffffffffffffffffffffff021916908373ffffffffffffffffffffffffffffffffffffffff1602179055506117a2806100606000396000f3fe60806040523480156200001157600080fd5b5060043610620000525760003560e01c80631ef455c7146200005757806353e76f2c1462000077578063b63ea47d1462000097578063f25ec66214620000b7575b600080fd5b6200007560048036038101906200006f91906200067b565b620000ee565b005b6200009560048036038101906200008f9190620006e1565b620001cc565b005b620000b56004803603810190620000af919062000785565b620002c3565b005b620000d56004803603810190620000cf9190620007cc565b620003ba565b604051620000e592919062000898565b60405180910390f35b600160003373ffffffffffffffffffffffffffffffffffffffff1673ffffffffffffffffffffffffffffffffffffffff16815260200190815260200160002082826040516200013d90620004bc565b6200014a92919062000898565b604051809103906000f08015801562000167573d6000803e3d6000fd5b509080600181540180825580915050600190039060005260206000200160009091909190916101000a81548173ffffffffffffffffffffffffffffffffffffffff021916908373ffffffffffffffffffffffffffffffffffffffff1602179055505050565b6000600160003373ffffffffffffffffffffffffffffffffffffffff1673ffffffffffffffffffffffffffffffffffffffff1681526020019081526020016000208381548110620002225762000221620008cc565b5b9060005260206000200160009054906101000a900473ffffffffffffffffffffffffffffffffffffffff1690508073ffffffffffffffffffffffffffffffffffffffff1663e987e58a836040518263ffffffff1660e01b81526004016200028a9190620008fb565b600060405180830381600087803b158015620002a557600080fd5b505af1158015620002ba573d6000803e3d6000fd5b50505050505050565b6000600160003373ffffffffffffffffffffffffffffffffffffffff1673ffffffffffffffffffffffffffffffffffffffff1681526020019081526020016000208281548110620003195762000318620008cc565b5b9060005260206000200160009054906101000a900473ffffffffffffffffffffffffffffffffffffffff1690508073ffffffffffffffffffffffffffffffffffffffff1663ae512f91846040518263ffffffff1660e01b815260040162000381919062000962565b600060405180830381600087803b1580156200039c57600080fd5b505af1158015620003b1573d6000803e3d6000fd5b50505050505050565b60606000600160003373ffffffffffffffffffffffffffffffffffffffff1673ffffffffffffffffffffffffffffffffffffffff1681526020019081526020016000208381548110620004125762000411620008cc565b5b9060005260206000200160009054906101000a900473ffffffffffffffffffffffffffffffffffffffff1673ffffffffffffffffffffffffffffffffffffffff16638ec4dc956040518163ffffffff1660e01b8152600401600060405180830381865afa15801562000488573d6000803e3d6000fd5b505050506040513d6000823e3d601f19601f82011682018060405250810190620004b3919062000a14565b91509150915091565b610cf28062000a7b83390190565b6000604051905090565b600080fd5b600080fd5b600080fd5b600080fd5b6000601f19601f8301169050919050565b7f4e487b7100000000000000000000000000000000000000000000000000000000600052604160045260246000fd5b6200053382620004e8565b810181811067ffffffffffffffff82111715620005555762000554620004f9565b5b80604052505050565b60006200056a620004ca565b905062000578828262000528565b919050565b600067ffffffffffffffff8211156200059b576200059a620004f9565b5b620005a682620004e8565b9050602081019050919050565b82818337600083830152505050565b6000620005d9620005d3846200057d565b6200055e565b905082815260208101848484011115620005f857620005f7620004e3565b5b62000605848285620005b3565b509392505050565b600082601f830112620006255762000624620004de565b5b813562000637848260208601620005c2565b91505092915050565b6000819050919050565b620006558162000640565b81146200066157600080fd5b50565b60008135905062000675816200064a565b92915050565b60008060408385031215620006955762000694620004d4565b5b600083013567ffffffffffffffff811115620006b657620006b5620004d9565b5b620006c4858286016200060d565b9250506020620006d78582860162000664565b9150509250929050565b60008060408385031215620006fb57620006fa620004d4565b5b60006200070b8582860162000664565b925050602083013567ffffffffffffffff8111156200072f576200072e620004d9565b5b6200073d858286016200060d565b9150509250929050565b600060ff82169050919050565b6200075f8162000747565b81146200076b57600080fd5b50565b6000813590506200077f8162000754565b92915050565b600080604083850312156200079f576200079e620004d4565b5b6000620007af858286016200076e565b9250506020620007c28582860162000664565b9150509250929050565b600060208284031215620007e557620007e4620004d4565b5b6000620007f58482850162000664565b91505092915050565b600081519050919050565b600082825260208201905092915050565b60005b838110156200083a5780820151818401526020810190506200081d565b60008484015250505050565b60006200085382620007fe565b6200085f818562000809565b9350620008718185602086016200081a565b6200087c81620004e8565b840191505092915050565b620008928162000640565b82525050565b60006040820190508181036000830152620008b4818562000846565b9050620008c5602083018462000887565b9392505050565b7f4e487b7100000000000000000000000000000000000000000000000000000000600052603260045260246000fd5b6000602082019050818103600083015262000917818462000846565b905092915050565b6000819050919050565b60006200094a620009446200093e8462000747565b6200091f565b62000640565b9050919050565b6200095c8162000929565b82525050565b600060208201905062000979600083018462000951565b92915050565b60006200099662000990846200057d565b6200055e565b905082815260208101848484011115620009b557620009b4620004e3565b5b620009c28482856200081a565b509392505050565b600082601f830112620009e257620009e1620004de565b5b8151620009f48482602086016200097f565b91505092915050565b60008151905062000a0e816200064a565b92915050565b6000806040838503121562000a2e5762000a2d620004d4565b5b600083015167ffffffffffffffff81111562000a4f5762000a4e620004d9565b5b62000a5d85828601620009ca565b925050602062000a7085828601620009fd565b915050925092905056fe60806040523480156200001157600080fd5b5060405162000cf238038062000cf2833981810160405281019062000037919062000226565b8160009081620000489190620004cd565b50806001819055505050620005b4565b6000604051905090565b600080fd5b600080fd5b600080fd5b600080fd5b6000601f19601f8301169050919050565b7f4e487b7100000000000000000000000000000000000000000000000000000000600052604160045260246000fd5b620000c18262000076565b810181811067ffffffffffffffff82111715620000e357620000e262000087565b5b80604052505050565b6000620000f862000058565b9050620001068282620000b6565b919050565b600067ffffffffffffffff82111562000129576200012862000087565b5b620001348262000076565b9050602081019050919050565b60005b838110156200016157808201518184015260208101905062000144565b60008484015250505050565b6000620001846200017e846200010b565b620000ec565b905082815260208101848484011115620001a357620001a262000071565b5b620001b084828562000141565b509392505050565b600082601f830112620001d057620001cf6200006c565b5b8151620001e28482602086016200016d565b91505092915050565b6000819050919050565b6200020081620001eb565b81146200020c57600080fd5b50565b6000815190506200022081620001f5565b92915050565b6000806040838503121562000240576200023f62000062565b5b600083015167ffffffffffffffff81111562000261576200026062000067565b5b6200026f85828601620001b8565b925050602062000282858286016200020f565b9150509250929050565b600081519050919050565b7f4e487b7100000000000000000000000000000000000000000000000000000000600052602260045260246000fd5b60006002820490506001821680620002df57607f821691505b602082108103620002f557620002f462000297565b5b50919050565b60008190508160005260206000209050919050565b60006020601f8301049050919050565b600082821b905092915050565b6000600883026200035f7fffffffffffffffffffffffffffffffffffffffffffffffffffffffffffffffff8262000320565b6200036b868362000320565b95508019841693508086168417925050509392505050565b6000819050919050565b6000620003ae620003a8620003a284620001eb565b62000383565b620001eb565b9050919050565b6000819050919050565b620003ca836200038d565b620003e2620003d982620003b5565b8484546200032d565b825550505050565b600090565b620003f9620003ea565b62000406818484620003bf565b505050565b5b818110156200042e5762000422600082620003ef565b6001810190506200040c565b5050565b601f8211156200047d576200044781620002fb565b620004528462000310565b8101602085101562000462578190505b6200047a620004718562000310565b8301826200040b565b50505b505050565b600082821c905092915050565b6000620004a26000198460080262000482565b1980831691505092915050565b6000620004bd83836200048f565b9150826002028217905092915050565b620004d8826200028c565b67ffffffffffffffff811115620004f457620004f362000087565b5b620005008254620002c6565b6200050d82828562000432565b600060209050601f83116001811462000545576000841562000530578287015190505b6200053c8582620004af565b865550620005ac565b601f1984166200055586620002fb565b60005b828110156200057f5784890151825560018201915060208501945060208101905062000558565b868310156200059f57848901516200059b601f8916826200048f565b8355505b6001600288020188555050505b505050505050565b61072e80620005c46000396000f3fe608060405234801561001057600080fd5b50600436106100415760003560e01c80638ec4dc9514610046578063ae512f9114610065578063e987e58a14610081575b600080fd5b61004e61009d565b60405161005c9291906101ff565b60405180910390f35b61007f600480360381019061007a919061026f565b610139565b005b61009b600480360381019061009691906103d1565b610143565b005b60606000806001548180546100b190610449565b80601f01602080910402602001604051908101604052809291908181526020018280546100dd90610449565b801561012a5780601f106100ff5761010080835404028352916020019161012a565b820191906000526020600020905b81548152906001019060200180831161010d57829003601f168201915b50505050509150915091509091565b8060018190555050565b80600090816101529190610626565b5050565b600081519050919050565b600082825260208201905092915050565b60005b83811015610190578082015181840152602081019050610175565b60008484015250505050565b6000601f19601f8301169050919050565b60006101b882610156565b6101c28185610161565b93506101d2818560208601610172565b6101db8161019c565b840191505092915050565b6000819050919050565b6101f9816101e6565b82525050565b6000604082019050818103600083015261021981856101ad565b905061022860208301846101f0565b9392505050565b6000604051905090565b600080fd5b600080fd5b61024c816101e6565b811461025757600080fd5b50565b60008135905061026981610243565b92915050565b60006020828403121561028557610284610239565b5b60006102938482850161025a565b91505092915050565b600080fd5b600080fd5b7f4e487b7100000000000000000000000000000000000000000000000000000000600052604160045260246000fd5b6102de8261019c565b810181811067ffffffffffffffff821117156102fd576102fc6102a6565b5b80604052505050565b600061031061022f565b905061031c82826102d5565b919050565b600067ffffffffffffffff82111561033c5761033b6102a6565b5b6103458261019c565b9050602081019050919050565b82818337600083830152505050565b600061037461036f84610321565b610306565b9050828152602081018484840111156103905761038f6102a1565b5b61039b848285610352565b509392505050565b600082601f8301126103b8576103b761029c565b5b81356103c8848260208601610361565b91505092915050565b6000602082840312156103e7576103e6610239565b5b600082013567ffffffffffffffff8111156104055761040461023e565b5b610411848285016103a3565b91505092915050565b7f4e487b7100000000000000000000000000000000000000000000000000000000600052602260045260246000fd5b6000600282049050600182168061046157607f821691505b6020821081036104745761047361041a565b5b50919050565b60008190508160005260206000209050919050565b60006020601f8301049050919050565b600082821b905092915050565b6000600883026104dc7fffffffffffffffffffffffffffffffffffffffffffffffffffffffffffffffff8261049f565b6104e6868361049f565b95508019841693508086168417925050509392505050565b6000819050919050565b600061052361051e610519846101e6565b6104fe565b6101e6565b9050919050565b6000819050919050565b61053d83610508565b6105516105498261052a565b8484546104ac565b825550505050565b600090565b610566610559565b610571818484610534565b505050565b5b818110156105955761058a60008261055e565b600181019050610577565b5050565b601f8211156105da576105ab8161047a565b6105b48461048f565b810160208510156105c3578190505b6105d76105cf8561048f565b830182610576565b50505b505050565b600082821c905092915050565b60006105fd600019846008026105df565b1980831691505092915050565b600061061683836105ec565b9150826002028217905092915050565b61062f82610156565b67ffffffffffffffff811115610648576106476102a6565b5b6106528254610449565b61065d828285610599565b600060209050601f831160018114610690576000841561067e578287015190505b610688858261060a565b8655506106f0565b601f19841661069e8661047a565b60005b828110156106c6578489015182556001820191506020850194506020810190506106a1565b868310156106e357848901516106df601f8916826105ec565b8355505b6001600288020188555050505b50505050505056fea264697066735822122007944c628d96d62ef77e49e7b4a7ce8ec31b5857533661de7b93df61709df68464736f6c63430008180033a2646970667358221220de23bb505a3dc61a57383e54aeec173d0711bc3d467b486f1b098fafb36093ac64736f6c63430008180033",
  "linkReferences": {},
  "deployedLinkReferences": {}
}